{
  "contractName": "BaxToken",
  "abi": [
    {
      "constant": true,
      "inputs": [],
      "name": "mintingFinished",
      "outputs": [
        {
          "name": "",
          "type": "bool"
        }
      ],
      "payable": false,
      "stateMutability": "view",
      "type": "function"
    },
    {
      "constant": true,
      "inputs": [],
      "name": "name",
      "outputs": [
        {
          "name": "",
          "type": "string"
        }
      ],
      "payable": false,
      "stateMutability": "view",
      "type": "function"
    },
    {
      "constant": false,
      "inputs": [
        {
          "name": "_spender",
          "type": "address"
        },
        {
          "name": "_value",
          "type": "uint256"
        }
      ],
      "name": "approve",
      "outputs": [
        {
          "name": "",
          "type": "bool"
        }
      ],
      "payable": false,
      "stateMutability": "nonpayable",
      "type": "function"
    },
    {
      "constant": true,
      "inputs": [],
      "name": "totalSupply",
      "outputs": [
        {
          "name": "",
          "type": "uint256"
        }
      ],
      "payable": false,
      "stateMutability": "view",
      "type": "function"
    },
    {
      "constant": false,
      "inputs": [
        {
          "name": "_from",
          "type": "address"
        },
        {
          "name": "_to",
          "type": "address"
        },
        {
          "name": "_value",
          "type": "uint256"
        }
      ],
      "name": "transferFrom",
      "outputs": [
        {
          "name": "",
          "type": "bool"
        }
      ],
      "payable": false,
      "stateMutability": "nonpayable",
      "type": "function"
    },
    {
      "constant": true,
      "inputs": [],
      "name": "decimals",
      "outputs": [
        {
          "name": "",
          "type": "uint8"
        }
      ],
      "payable": false,
      "stateMutability": "view",
      "type": "function"
    },
    {
      "constant": true,
      "inputs": [],
      "name": "cap",
      "outputs": [
        {
          "name": "",
          "type": "uint256"
        }
      ],
      "payable": false,
      "stateMutability": "view",
      "type": "function"
    },
    {
      "constant": false,
      "inputs": [
        {
          "name": "_to",
          "type": "address"
        },
        {
          "name": "_amount",
          "type": "uint256"
        }
      ],
      "name": "mint",
      "outputs": [
        {
          "name": "",
          "type": "bool"
        }
      ],
      "payable": false,
      "stateMutability": "nonpayable",
      "type": "function"
    },
    {
      "constant": false,
      "inputs": [
        {
          "name": "_value",
          "type": "uint256"
        }
      ],
      "name": "burn",
      "outputs": [],
      "payable": false,
      "stateMutability": "nonpayable",
      "type": "function"
    },
    {
      "constant": false,
      "inputs": [
        {
          "name": "_spender",
          "type": "address"
        },
        {
          "name": "_subtractedValue",
          "type": "uint256"
        }
      ],
      "name": "decreaseApproval",
      "outputs": [
        {
          "name": "",
          "type": "bool"
        }
      ],
      "payable": false,
      "stateMutability": "nonpayable",
      "type": "function"
    },
    {
      "constant": true,
      "inputs": [
        {
          "name": "_owner",
          "type": "address"
        }
      ],
      "name": "balanceOf",
      "outputs": [
        {
          "name": "balance",
          "type": "uint256"
        }
      ],
      "payable": false,
      "stateMutability": "view",
      "type": "function"
    },
    {
      "constant": false,
      "inputs": [],
      "name": "finishMinting",
      "outputs": [
        {
          "name": "",
          "type": "bool"
        }
      ],
      "payable": false,
      "stateMutability": "nonpayable",
      "type": "function"
    },
    {
      "constant": true,
      "inputs": [],
      "name": "owner",
      "outputs": [
        {
          "name": "",
          "type": "address"
        }
      ],
      "payable": false,
      "stateMutability": "view",
      "type": "function"
    },
    {
      "constant": true,
      "inputs": [],
      "name": "symbol",
      "outputs": [
        {
          "name": "",
          "type": "string"
        }
      ],
      "payable": false,
      "stateMutability": "view",
      "type": "function"
    },
    {
      "constant": false,
      "inputs": [
        {
          "name": "_to",
          "type": "address"
        },
        {
          "name": "_value",
          "type": "uint256"
        }
      ],
      "name": "transfer",
      "outputs": [
        {
          "name": "",
          "type": "bool"
        }
      ],
      "payable": false,
      "stateMutability": "nonpayable",
      "type": "function"
    },
    {
      "constant": false,
      "inputs": [
        {
          "name": "_spender",
          "type": "address"
        },
        {
          "name": "_addedValue",
          "type": "uint256"
        }
      ],
      "name": "increaseApproval",
      "outputs": [
        {
          "name": "",
          "type": "bool"
        }
      ],
      "payable": false,
      "stateMutability": "nonpayable",
      "type": "function"
    },
    {
      "constant": true,
      "inputs": [
        {
          "name": "_owner",
          "type": "address"
        },
        {
          "name": "_spender",
          "type": "address"
        }
      ],
      "name": "allowance",
      "outputs": [
        {
          "name": "",
          "type": "uint256"
        }
      ],
      "payable": false,
      "stateMutability": "view",
      "type": "function"
    },
    {
      "constant": false,
      "inputs": [
        {
          "name": "newOwner",
          "type": "address"
        }
      ],
      "name": "transferOwnership",
      "outputs": [],
      "payable": false,
      "stateMutability": "nonpayable",
      "type": "function"
    },
    {
      "inputs": [],
      "payable": false,
      "stateMutability": "nonpayable",
      "type": "constructor"
    },
    {
      "anonymous": false,
      "inputs": [
        {
          "indexed": true,
          "name": "to",
          "type": "address"
        },
        {
          "indexed": false,
          "name": "amount",
          "type": "uint256"
        }
      ],
      "name": "Mint",
      "type": "event"
    },
    {
      "anonymous": false,
      "inputs": [],
      "name": "MintFinished",
      "type": "event"
    },
    {
      "anonymous": false,
      "inputs": [
        {
          "indexed": true,
          "name": "previousOwner",
          "type": "address"
        },
        {
          "indexed": true,
          "name": "newOwner",
          "type": "address"
        }
      ],
      "name": "OwnershipTransferred",
      "type": "event"
    },
    {
      "anonymous": false,
      "inputs": [
        {
          "indexed": true,
          "name": "burner",
          "type": "address"
        },
        {
          "indexed": false,
          "name": "value",
          "type": "uint256"
        }
      ],
      "name": "Burn",
      "type": "event"
    },
    {
      "anonymous": false,
      "inputs": [
        {
          "indexed": true,
          "name": "owner",
          "type": "address"
        },
        {
          "indexed": true,
          "name": "spender",
          "type": "address"
        },
        {
          "indexed": false,
          "name": "value",
          "type": "uint256"
        }
      ],
      "name": "Approval",
      "type": "event"
    },
    {
      "anonymous": false,
      "inputs": [
        {
          "indexed": true,
          "name": "from",
          "type": "address"
        },
        {
          "indexed": true,
          "name": "to",
          "type": "address"
        },
        {
          "indexed": false,
          "name": "value",
          "type": "uint256"
        }
      ],
      "name": "Transfer",
      "type": "event"
    }
  ],
  "bytecode": "0x60606040526006805460a060020a60ff0219169055341561001f57600080fd5b6ba18f07d736b90be550000000604080519081016040908152600382527f424158000000000000000000000000000000000000000000000000000000000060208301528051908101604052600381527f42415800000000000000000000000000000000000000000000000000000000006020820152601260018380516100a9929160200190610104565b5060028280516100bd929160200190610104565b506003805460ff191660ff92909216919091179055505060068054600160a060020a03191633600160a060020a0316179055600081116100fc57600080fd5b60075561019f565b828054600181600116156101000203166002900490600052602060002090601f016020900481019282601f1061014557805160ff1916838001178555610172565b82800160010185558215610172579182015b82811115610172578251825591602001919060010190610157565b5061017e929150610182565b5090565b61019c91905b8082111561017e5760008155600101610188565b90565b610d60806101ae6000396000f3006060604052600436106100fb5763ffffffff7c010000000000000000000000000000000000000000000000000000000060003504166305d2035b811461010057806306fdde0314610127578063095ea7b3146101b157806318160ddd146101d357806323b872dd146101f8578063313ce56714610220578063355274ea1461024957806340c10f191461025c57806342966c681461027e578063661884631461029657806370a08231146102b85780637d64bcb4146102d75780638da5cb5b146102ea57806395d89b4114610319578063a9059cbb1461032c578063d73dd6231461034e578063dd62ed3e14610370578063f2fde38b14610395575b600080fd5b341561010b57600080fd5b6101136103b4565b604051901515815260200160405180910390f35b341561013257600080fd5b61013a6103c4565b60405160208082528190810183818151815260200191508051906020019080838360005b8381101561017657808201518382015260200161015e565b50505050905090810190601f1680156101a35780820380516001836020036101000a031916815260200191505b509250505060405180910390f35b34156101bc57600080fd5b610113600160a060020a0360043516602435610462565b34156101de57600080fd5b6101e66104ce565b60405190815260200160405180910390f35b341561020357600080fd5b610113600160a060020a03600435811690602435166044356104d4565b341561022b57600080fd5b610233610656565b60405160ff909116815260200160405180910390f35b341561025457600080fd5b6101e661065f565b341561026757600080fd5b610113600160a060020a0360043516602435610665565b341561028957600080fd5b6102946004356106cc565b005b34156102a157600080fd5b610113600160a060020a0360043516602435610787565b34156102c357600080fd5b6101e6600160a060020a0360043516610881565b34156102e257600080fd5b61011361089c565b34156102f557600080fd5b6102fd610927565b604051600160a060020a03909116815260200160405180910390f35b341561032457600080fd5b61013a610936565b341561033757600080fd5b610113600160a060020a03600435166024356109a1565b341561035957600080fd5b610113600160a060020a0360043516602435610a9c565b341561037b57600080fd5b6101e6600160a060020a0360043581169060243516610b40565b34156103a057600080fd5b610294600160a060020a0360043516610b6b565b60065460a060020a900460ff1681565b60018054600181600116156101000203166002900480601f01602080910402602001604051908101604052809291908181526020018280546001816001161561010002031660029004801561045a5780601f1061042f5761010080835404028352916020019161045a565b820191906000526020600020905b81548152906001019060200180831161043d57829003601f168201915b505050505081565b600160a060020a03338116600081815260056020908152604080832094871680845294909152808220859055909291907f8c5be1e5ebec7d5bd14f71427d1e84f3dd0314c0f7b2291e5b200ac8c7c3b9259085905190815260200160405180910390a350600192915050565b60005481565b6000600160a060020a03831615156104eb57600080fd5b600160a060020a03841660009081526004602052604090205482111561051057600080fd5b600160a060020a038085166000908152600560209081526040808320339094168352929052205482111561054357600080fd5b600160a060020a03841660009081526004602052604090205461056c908363ffffffff610c0616565b600160a060020a0380861660009081526004602052604080822093909355908516815220546105a1908363ffffffff610c1816565b600160a060020a038085166000908152600460209081526040808320949094558783168252600581528382203390931682529190915220546105e9908363ffffffff610c0616565b600160a060020a03808616600081815260056020908152604080832033861684529091529081902093909355908516917fddf252ad1be2c89b69c2b068fc378daa952ba7f163c4a11628f55a4df523b3ef9085905190815260200160405180910390a35060019392505050565b60035460ff1681565b60075481565b60065460009033600160a060020a0390811691161461068357600080fd5b60065460a060020a900460ff161561069a57600080fd5b6007546000546106b0908463ffffffff610c1816565b11156106bb57600080fd5b6106c58383610c27565b9392505050565b600160a060020a0333166000908152600460205260408120548211156106f157600080fd5b5033600160a060020a0381166000908152600460205260409020546107169083610c06565b600160a060020a03821660009081526004602052604081209190915554610743908363ffffffff610c0616565b600055600160a060020a0381167fcc16f5dbb4873280815c1ee09dbd06736cffcc184412cf7a71a0fdb75d397ca58360405190815260200160405180910390a25050565b600160a060020a033381166000908152600560209081526040808320938616835292905290812054808311156107e457600160a060020a03338116600090815260056020908152604080832093881683529290529081205561081b565b6107f4818463ffffffff610c0616565b600160a060020a033381166000908152600560209081526040808320938916835292905220555b600160a060020a0333811660008181526005602090815260408083209489168084529490915290819020547f8c5be1e5ebec7d5bd14f71427d1e84f3dd0314c0f7b2291e5b200ac8c7c3b925915190815260200160405180910390a35060019392505050565b600160a060020a031660009081526004602052604090205490565b60065460009033600160a060020a039081169116146108ba57600080fd5b60065460a060020a900460ff16156108d157600080fd5b6006805474ff0000000000000000000000000000000000000000191660a060020a1790557fae5184fba832cb2b1f702aca6117b8d265eaf03ad33eb133f19dde0f5920fa0860405160405180910390a150600190565b600654600160a060020a031681565b60028054600181600116156101000203166002900480601f01602080910402602001604051908101604052809291908181526020018280546001816001161561010002031660029004801561045a5780601f1061042f5761010080835404028352916020019161045a565b6000600160a060020a03831615156109b857600080fd5b600160a060020a0333166000908152600460205260409020548211156109dd57600080fd5b600160a060020a033316600090815260046020526040902054610a06908363ffffffff610c0616565b600160a060020a033381166000908152600460205260408082209390935590851681522054610a3b908363ffffffff610c1816565b600160a060020a0380851660008181526004602052604090819020939093559133909116907fddf252ad1be2c89b69c2b068fc378daa952ba7f163c4a11628f55a4df523b3ef9085905190815260200160405180910390a350600192915050565b600160a060020a033381166000908152600560209081526040808320938616835292905290812054610ad4908363ffffffff610c1816565b600160a060020a0333811660008181526005602090815260408083209489168084529490915290819020849055919290917f8c5be1e5ebec7d5bd14f71427d1e84f3dd0314c0f7b2291e5b200ac8c7c3b92591905190815260200160405180910390a350600192915050565b600160a060020a03918216600090815260056020908152604080832093909416825291909152205490565b60065433600160a060020a03908116911614610b8657600080fd5b600160a060020a0381161515610b9b57600080fd5b600654600160a060020a0380831691167f8be0079c531659141344cd1fd0a4f28419497f9722a3daafe3b4186f6b6457e060405160405180910390a36006805473ffffffffffffffffffffffffffffffffffffffff1916600160a060020a0392909216919091179055565b600082821115610c1257fe5b50900390565b6000828201838110156106c557fe5b60065460009033600160a060020a03908116911614610c4557600080fd5b60065460a060020a900460ff1615610c5c57600080fd5b600054610c6f908363ffffffff610c1816565b6000908155600160a060020a038416815260046020526040902054610c9a908363ffffffff610c1816565b600160a060020a0384166000818152600460205260409081902092909255907f0f6798a560793a54c3bcfe86a93cde1e73087d944c0ea20544137d41213968859084905190815260200160405180910390a2600160a060020a03831660007fddf252ad1be2c89b69c2b068fc378daa952ba7f163c4a11628f55a4df523b3ef8460405190815260200160405180910390a3506001929150505600a165627a7a72305820e8fa3f39625ef4b18f0809d55cfdf4b9c64a953d495f080c9bb78ee896a051130029",
  "source": "pragma solidity ^0.4.18;\n\n\n/**\n * Use OpenZeppelin Libraries 1.5.0\n *   https://registry.npmjs.org/zeppelin-solidity/-/zeppelin-solidity-1.5.0.tgz\n *   sha512-X4Z7JNarpK71BqiHn/vYrKM1Xul/YeDM9Wr8i2TnTPZSmsUWFy4R4vRxyMk3td58UKvApidWejtgHOC7rkSSew==\",\n */\nimport 'zeppelin-solidity/contracts/token/StandardToken.sol';\nimport 'zeppelin-solidity/contracts/token/BurnableToken.sol';\nimport 'zeppelin-solidity/contracts/token/CappedToken.sol';\nimport 'zeppelin-solidity/contracts/token/DetailedERC20.sol';\n\n\ncontract BaxToken is DetailedERC20, StandardToken, BurnableToken, CappedToken {\n  /**\n   * @dev Set the maximum issuance cap and token details.\n   */\n  function BaxToken()\n    DetailedERC20('BAX', 'BAX', 18)\n    CappedToken( 50 * (10**9) * (10**18) )\n  public {\n\n  }\n}\n",
  "sourcePath": "/home/jrp/Projects/FintechServer/baxtoken/contracts/BaxToken.sol",
  "compiler": {
    "name": "solc",
    "version": "0.4.18+commit.9cf6e910.Emscripten.clang"
  },
  "schemaVersion": "1.0.1",
  "updatedAt": "2018-01-28T23:16:52.582Z"
}