{
  "contractName": "CappedToken",
  "abi": [
    {
      "constant": true,
      "inputs": [],
      "name": "mintingFinished",
      "outputs": [
        {
          "name": "",
          "type": "bool"
        }
      ],
      "payable": false,
      "stateMutability": "view",
      "type": "function"
    },
    {
      "constant": false,
      "inputs": [
        {
          "name": "_spender",
          "type": "address"
        },
        {
          "name": "_value",
          "type": "uint256"
        }
      ],
      "name": "approve",
      "outputs": [
        {
          "name": "",
          "type": "bool"
        }
      ],
      "payable": false,
      "stateMutability": "nonpayable",
      "type": "function"
    },
    {
      "constant": true,
      "inputs": [],
      "name": "totalSupply",
      "outputs": [
        {
          "name": "",
          "type": "uint256"
        }
      ],
      "payable": false,
      "stateMutability": "view",
      "type": "function"
    },
    {
      "constant": false,
      "inputs": [
        {
          "name": "_from",
          "type": "address"
        },
        {
          "name": "_to",
          "type": "address"
        },
        {
          "name": "_value",
          "type": "uint256"
        }
      ],
      "name": "transferFrom",
      "outputs": [
        {
          "name": "",
          "type": "bool"
        }
      ],
      "payable": false,
      "stateMutability": "nonpayable",
      "type": "function"
    },
    {
      "constant": true,
      "inputs": [],
      "name": "cap",
      "outputs": [
        {
          "name": "",
          "type": "uint256"
        }
      ],
      "payable": false,
      "stateMutability": "view",
      "type": "function"
    },
    {
      "constant": false,
      "inputs": [
        {
          "name": "_to",
          "type": "address"
        },
        {
          "name": "_amount",
          "type": "uint256"
        }
      ],
      "name": "mint",
      "outputs": [
        {
          "name": "",
          "type": "bool"
        }
      ],
      "payable": false,
      "stateMutability": "nonpayable",
      "type": "function"
    },
    {
      "constant": false,
      "inputs": [
        {
          "name": "_spender",
          "type": "address"
        },
        {
          "name": "_subtractedValue",
          "type": "uint256"
        }
      ],
      "name": "decreaseApproval",
      "outputs": [
        {
          "name": "",
          "type": "bool"
        }
      ],
      "payable": false,
      "stateMutability": "nonpayable",
      "type": "function"
    },
    {
      "constant": true,
      "inputs": [
        {
          "name": "_owner",
          "type": "address"
        }
      ],
      "name": "balanceOf",
      "outputs": [
        {
          "name": "balance",
          "type": "uint256"
        }
      ],
      "payable": false,
      "stateMutability": "view",
      "type": "function"
    },
    {
      "constant": false,
      "inputs": [],
      "name": "finishMinting",
      "outputs": [
        {
          "name": "",
          "type": "bool"
        }
      ],
      "payable": false,
      "stateMutability": "nonpayable",
      "type": "function"
    },
    {
      "constant": true,
      "inputs": [],
      "name": "owner",
      "outputs": [
        {
          "name": "",
          "type": "address"
        }
      ],
      "payable": false,
      "stateMutability": "view",
      "type": "function"
    },
    {
      "constant": false,
      "inputs": [
        {
          "name": "_to",
          "type": "address"
        },
        {
          "name": "_value",
          "type": "uint256"
        }
      ],
      "name": "transfer",
      "outputs": [
        {
          "name": "",
          "type": "bool"
        }
      ],
      "payable": false,
      "stateMutability": "nonpayable",
      "type": "function"
    },
    {
      "constant": false,
      "inputs": [
        {
          "name": "_spender",
          "type": "address"
        },
        {
          "name": "_addedValue",
          "type": "uint256"
        }
      ],
      "name": "increaseApproval",
      "outputs": [
        {
          "name": "",
          "type": "bool"
        }
      ],
      "payable": false,
      "stateMutability": "nonpayable",
      "type": "function"
    },
    {
      "constant": true,
      "inputs": [
        {
          "name": "_owner",
          "type": "address"
        },
        {
          "name": "_spender",
          "type": "address"
        }
      ],
      "name": "allowance",
      "outputs": [
        {
          "name": "",
          "type": "uint256"
        }
      ],
      "payable": false,
      "stateMutability": "view",
      "type": "function"
    },
    {
      "constant": false,
      "inputs": [
        {
          "name": "newOwner",
          "type": "address"
        }
      ],
      "name": "transferOwnership",
      "outputs": [],
      "payable": false,
      "stateMutability": "nonpayable",
      "type": "function"
    },
    {
      "inputs": [
        {
          "name": "_cap",
          "type": "uint256"
        }
      ],
      "payable": false,
      "stateMutability": "nonpayable",
      "type": "constructor"
    },
    {
      "anonymous": false,
      "inputs": [
        {
          "indexed": true,
          "name": "to",
          "type": "address"
        },
        {
          "indexed": false,
          "name": "amount",
          "type": "uint256"
        }
      ],
      "name": "Mint",
      "type": "event"
    },
    {
      "anonymous": false,
      "inputs": [],
      "name": "MintFinished",
      "type": "event"
    },
    {
      "anonymous": false,
      "inputs": [
        {
          "indexed": true,
          "name": "previousOwner",
          "type": "address"
        },
        {
          "indexed": true,
          "name": "newOwner",
          "type": "address"
        }
      ],
      "name": "OwnershipTransferred",
      "type": "event"
    },
    {
      "anonymous": false,
      "inputs": [
        {
          "indexed": true,
          "name": "owner",
          "type": "address"
        },
        {
          "indexed": true,
          "name": "spender",
          "type": "address"
        },
        {
          "indexed": false,
          "name": "value",
          "type": "uint256"
        }
      ],
      "name": "Approval",
      "type": "event"
    },
    {
      "anonymous": false,
      "inputs": [
        {
          "indexed": true,
          "name": "from",
          "type": "address"
        },
        {
          "indexed": true,
          "name": "to",
          "type": "address"
        },
        {
          "indexed": false,
          "name": "value",
          "type": "uint256"
        }
      ],
      "name": "Transfer",
      "type": "event"
    }
  ],
  "bytecode": "0x60606040526003805460a060020a60ff0219169055341561001f57600080fd5b604051602080610afa8339810160405280805160038054600160a060020a03191633600160a060020a03161790559150506000811161005d57600080fd5b600455610a8b8061006f6000396000f3006060604052600436106100cf5763ffffffff7c010000000000000000000000000000000000000000000000000000000060003504166305d2035b81146100d4578063095ea7b3146100fb57806318160ddd1461011d57806323b872dd14610142578063355274ea1461016a57806340c10f191461017d578063661884631461019f57806370a08231146101c15780637d64bcb4146101e05780638da5cb5b146101f3578063a9059cbb14610222578063d73dd62314610244578063dd62ed3e14610266578063f2fde38b1461028b575b600080fd5b34156100df57600080fd5b6100e76102ac565b604051901515815260200160405180910390f35b341561010657600080fd5b6100e7600160a060020a03600435166024356102bc565b341561012857600080fd5b610130610328565b60405190815260200160405180910390f35b341561014d57600080fd5b6100e7600160a060020a036004358116906024351660443561032e565b341561017557600080fd5b6101306104b0565b341561018857600080fd5b6100e7600160a060020a03600435166024356104b6565b34156101aa57600080fd5b6100e7600160a060020a036004351660243561051d565b34156101cc57600080fd5b610130600160a060020a0360043516610617565b34156101eb57600080fd5b6100e7610632565b34156101fe57600080fd5b6102066106bd565b604051600160a060020a03909116815260200160405180910390f35b341561022d57600080fd5b6100e7600160a060020a03600435166024356106cc565b341561024f57600080fd5b6100e7600160a060020a03600435166024356107c7565b341561027157600080fd5b610130600160a060020a036004358116906024351661086b565b341561029657600080fd5b6102aa600160a060020a0360043516610896565b005b60035460a060020a900460ff1681565b600160a060020a03338116600081815260026020908152604080832094871680845294909152808220859055909291907f8c5be1e5ebec7d5bd14f71427d1e84f3dd0314c0f7b2291e5b200ac8c7c3b9259085905190815260200160405180910390a350600192915050565b60005481565b6000600160a060020a038316151561034557600080fd5b600160a060020a03841660009081526001602052604090205482111561036a57600080fd5b600160a060020a038085166000908152600260209081526040808320339094168352929052205482111561039d57600080fd5b600160a060020a0384166000908152600160205260409020546103c6908363ffffffff61093116565b600160a060020a0380861660009081526001602052604080822093909355908516815220546103fb908363ffffffff61094316565b600160a060020a03808516600090815260016020908152604080832094909455878316825260028152838220339093168252919091522054610443908363ffffffff61093116565b600160a060020a03808616600081815260026020908152604080832033861684529091529081902093909355908516917fddf252ad1be2c89b69c2b068fc378daa952ba7f163c4a11628f55a4df523b3ef9085905190815260200160405180910390a35060019392505050565b60045481565b60035460009033600160a060020a039081169116146104d457600080fd5b60035460a060020a900460ff16156104eb57600080fd5b600454600054610501908463ffffffff61094316565b111561050c57600080fd5b6105168383610952565b9392505050565b600160a060020a0333811660009081526002602090815260408083209386168352929052908120548083111561057a57600160a060020a0333811660009081526002602090815260408083209388168352929052908120556105b1565b61058a818463ffffffff61093116565b600160a060020a033381166000908152600260209081526040808320938916835292905220555b600160a060020a0333811660008181526002602090815260408083209489168084529490915290819020547f8c5be1e5ebec7d5bd14f71427d1e84f3dd0314c0f7b2291e5b200ac8c7c3b925915190815260200160405180910390a35060019392505050565b600160a060020a031660009081526001602052604090205490565b60035460009033600160a060020a0390811691161461065057600080fd5b60035460a060020a900460ff161561066757600080fd5b6003805474ff0000000000000000000000000000000000000000191660a060020a1790557fae5184fba832cb2b1f702aca6117b8d265eaf03ad33eb133f19dde0f5920fa0860405160405180910390a150600190565b600354600160a060020a031681565b6000600160a060020a03831615156106e357600080fd5b600160a060020a03331660009081526001602052604090205482111561070857600080fd5b600160a060020a033316600090815260016020526040902054610731908363ffffffff61093116565b600160a060020a033381166000908152600160205260408082209390935590851681522054610766908363ffffffff61094316565b600160a060020a0380851660008181526001602052604090819020939093559133909116907fddf252ad1be2c89b69c2b068fc378daa952ba7f163c4a11628f55a4df523b3ef9085905190815260200160405180910390a350600192915050565b600160a060020a0333811660009081526002602090815260408083209386168352929052908120546107ff908363ffffffff61094316565b600160a060020a0333811660008181526002602090815260408083209489168084529490915290819020849055919290917f8c5be1e5ebec7d5bd14f71427d1e84f3dd0314c0f7b2291e5b200ac8c7c3b92591905190815260200160405180910390a350600192915050565b600160a060020a03918216600090815260026020908152604080832093909416825291909152205490565b60035433600160a060020a039081169116146108b157600080fd5b600160a060020a03811615156108c657600080fd5b600354600160a060020a0380831691167f8be0079c531659141344cd1fd0a4f28419497f9722a3daafe3b4186f6b6457e060405160405180910390a36003805473ffffffffffffffffffffffffffffffffffffffff1916600160a060020a0392909216919091179055565b60008282111561093d57fe5b50900390565b60008282018381101561051657fe5b60035460009033600160a060020a0390811691161461097057600080fd5b60035460a060020a900460ff161561098757600080fd5b60005461099a908363ffffffff61094316565b6000908155600160a060020a0384168152600160205260409020546109c5908363ffffffff61094316565b600160a060020a0384166000818152600160205260409081902092909255907f0f6798a560793a54c3bcfe86a93cde1e73087d944c0ea20544137d41213968859084905190815260200160405180910390a2600160a060020a03831660007fddf252ad1be2c89b69c2b068fc378daa952ba7f163c4a11628f55a4df523b3ef8460405190815260200160405180910390a3506001929150505600a165627a7a72305820334e4f6845a41aab7d0cca61be34d20a58c93c3254241db2c6102a0297fd776b0029",
  "source": "pragma solidity ^0.4.11;\n\nimport './MintableToken.sol';\n\n/**\n * @title Capped token\n * @dev Mintable token with a token cap.\n */\n\ncontract CappedToken is MintableToken {\n\n  uint256 public cap;\n\n  function CappedToken(uint256 _cap) public {\n    require(_cap > 0);\n    cap = _cap;\n  }\n\n  /**\n   * @dev Function to mint tokens\n   * @param _to The address that will receive the minted tokens.\n   * @param _amount The amount of tokens to mint.\n   * @return A boolean that indicates if the operation was successful.\n   */\n  function mint(address _to, uint256 _amount) onlyOwner canMint public returns (bool) {\n    require(totalSupply.add(_amount) <= cap);\n\n    return super.mint(_to, _amount);\n  }\n\n}\n",
  "sourcePath": "zeppelin-solidity/contracts/token/CappedToken.sol",
  "compiler": {
    "name": "solc",
    "version": "0.4.18+commit.9cf6e910.Emscripten.clang"
  },
  "schemaVersion": "1.0.1",
  "updatedAt": "2018-01-28T21:39:14.979Z"
}